{
  "_format": "hh-sol-artifact-1",
  "contractName": "ProofVerifier",
  "sourceName": "contracts/ProofVerifier.sol",
  "abi": [
    {
      "inputs": [
        {
          "internalType": "address",
          "name": "checkpointManager",
          "type": "address"
        }
      ],
      "stateMutability": "nonpayable",
      "type": "constructor"
    },
    {
      "inputs": [
        {
          "internalType": "bytes",
          "name": "inputData",
          "type": "bytes"
        }
      ],
      "name": "exit",
      "outputs": [
        {
          "internalType": "bool",
          "name": "",
          "type": "bool"
        }
      ],
      "stateMutability": "view",
      "type": "function"
    }
  ],
  "bytecode": "0x608060405234801561001057600080fd5b506040516116033803806116038339818101604052602081101561003357600080fd5b5051600080546001600160a01b039092166001600160a01b031990921691909117905561159e806100656000396000f3fe608060405234801561001057600080fd5b506004361061002b5760003560e01c80633805550f14610030575b600080fd5b6100a06004803603602081101561004657600080fd5b81019060208101813564010000000081111561006157600080fd5b82018360208201111561007357600080fd5b8035906020019184600183028401116401000000008311171561009557600080fd5b5090925090506100b4565b604080519115158252519081900360200190f35b600060606100ff6100fa85858080601f01602080910402602001604051908101604052809392919081815260200183838082843760009201919091525061028092505050565b6102fc565b905061011e8160088151811061011157fe5b602002602001015161047e565b63ffffffff1916156101615760405162461bcd60e51b81526004018080602001828103825260258152602001806114536025913960400191505060405180910390fd5b6101b66101818260068151811061017457fe5b60200260200101516105c6565b6101918360088151811061017457fe5b6101a18460078151811061017457fe5b6101b18560058151811061011157fe5b610690565b610207576040805162461bcd60e51b815260206004820152601f60248201527f526f6f74436861696e4d616e616765723a20494e56414c49445f50524f4f4600604482015290519081900360640190fd5b61027561021a8260028151811061011157fe5b61022a8360038151811061011157fe5b61023a8460048151811061011157fe5b60001b61024d8560058151811061011157fe5b60001b6102608660008151811061011157fe5b6102708760018151811061017457fe5b610a79565b506001949350505050565b610288611413565b60008251116102de576040805162461bcd60e51b815260206004820152601f60248201527f524c505265616465723a20494e56414c49445f42595445535f4c454e47544800604482015290519081900360640190fd5b5060408051808201909152815181526020828101908201525b919050565b606061030782610bc3565b610358576040805162461bcd60e51b815260206004820152601860248201527f524c505265616465723a204954454d5f4e4f545f4c4953540000000000000000604482015290519081900360640190fd5b600061036383610bef565b905060608167ffffffffffffffff8111801561037e57600080fd5b506040519080825280602002602001820160405280156103b857816020015b6103a5611413565b81526020019060019003908161039d5790505b50905060006103ca8560200151610c7b565b8551909150811461040c5760405162461bcd60e51b81526004018080602001828103825260278152602001806114ed6027913960400191505060405180910390fd5b600061041b8660200151610d14565b60208701510190506000805b858110156104725761043883610c7b565b915060405180604001604052808381526020018481525085828151811061045b57fe5b602090810291909101015291810191600101610427565b50929695505050505050565b600061048982610bc3565b156104db576040805162461bcd60e51b815260206004820181905260248201527f524c505265616465723a204445434f44494e475f4c4953545f41535f55494e54604482015290519081900360640190fd5b815160211015610532576040805162461bcd60e51b815260206004820152601e60248201527f524c505265616465723a20494e56414c49445f55494e545f4c454e4754480000604482015290519081900360640190fd5b60006105418360200151610c7b565b835190915081146105835760405162461bcd60e51b81526004018080602001828103825260278152602001806115426027913960400191505060405180910390fd5b60006105928460200151610d14565b845160208087015183018051939450918490039291908310156105bc57826020036101000a820491505b5095945050505050565b606060006105d78360200151610c7b565b835190915081146106195760405162461bcd60e51b81526004018080602001828103825260288152602001806114786028913960400191505060405180910390fd5b60006106288460200151610d14565b845190915081900360608167ffffffffffffffff8111801561064957600080fd5b506040519080825280601f01601f191660200182016040528015610674576020820181803683370190505b50905060008160200190506105bc848860200151018285610d77565b600061069a611413565b6106a384610280565b905060606106b0826102fc565b9050606080856000826106c28b610dc2565b9050805160001415610711576040805162461bcd60e51b8152602060048201526013602482015272092dcecc2d8d2c840d8cadccee8d040e0c2e8d606b1b604482015290519081900360640190fd5b60005b8651811015610a68578151831115610761576040805162461bcd60e51b815260206004820152600b60248201526a2130b2103830ba34283a3960a91b604482015290519081900360640190fd5b61077d87828151811061077057fe5b6020026020010151610f36565b9550858051906020012084146107ec5761079684610f9d565b6107a68680519060200120610f9d565b6040805162461bcd60e51b8152602060048201526016602482015275096caf240c8decae6dc4ee840dac2e8c6d040d0c2e6d60531b604482015290519081900360640190fd5b6108088782815181106107fb57fe5b60200260200101516102fc565b945084516011141561091357815183141561088a578c805190602001206108358660108151811061017457fe5b80519060200120141561085357600198505050505050505050610a71565b60405162461bcd60e51b81526004018080602001828103825260218152602001806114cc6021913960400191505060405180910390fd5b600082848151811061089857fe5b016020015160f81c905060108111156108e5576040805162461bcd60e51b815260206004820152600a602482015269426164206e6962626c6560b01b604482015290519081900360640190fd5b610904868260ff16815181106108f757fe5b6020026020010151610fe1565b94505060019290920191610a60565b845160021415610a275760006109396109328760008151811061017457fe5b8486611080565b9050825181850114156109ca578d8051906020012061095e8760018151811061017457fe5b80519060200120141561097d5760019950505050505050505050610a71565b6040805162461bcd60e51b815260206004820181905260248201527f4c656166206e6f6465206861736820646f65736e2774206d6174636820283229604482015290519081900360640190fd5b80610a09576040805162461bcd60e51b815260206004820152600a60248201526929b7b6b2ba3434b7339960b11b604482015290519081900360640190fd5b8084019350610a1e866001815181106108f757fe5b9450610a609050565b6040805162461bcd60e51b8152602060048201526009602482015268536f6d657468696e6760b81b604482015290519081900360640190fd5b600101610714565b50505050505050505b949350505050565b60008054604080516320a9cea560e11b81526004810186905290518392839283926001600160a01b03909216916341539d4a9160248082019260a092909190829003018186803b158015610acc57600080fd5b505afa158015610ae0573d6000803e3d6000fd5b505050506040513d60a0811015610af657600080fd5b50805160208201516060909201519094509092509050610b65610b1f8b8463ffffffff61115f16565b6040805160208082018f90528183018e9052606082018d905260808083018d90528351808403909101815260a0909201909252805191012090858863ffffffff6111a816565b610bb6576040805162461bcd60e51b815260206004820181905260248201527f526f6f74436861696e4d616e616765723a20494e56414c49445f484541444552604482015290519081900360640190fd5b9998505050505050505050565b6020810151805160009190821a9060c0821015610be5576000925050506102f7565b5060019392505050565b600080600090506000610c058460200151610d14565b602085015185519181019250015b80821015610c7257610c2482610c7b565b8201915080821115610c675760405162461bcd60e51b815260040180806020018281038252602c8152602001806114a0602c913960400191505060405180910390fd5b600190920191610c13565b50909392505050565b80516000908190811a6080811015610c965760019150610d0d565b60b8811015610cab57607e1981019150610d0d565b60c0811015610cd85760b78103600185019450806020036101000a85510460018201810193505050610d0d565b60f8811015610ced5760be1981019150610d0d565b60f78103600185019450806020036101000a855104600182018101935050505b5092915050565b8051600090811a6080811015610d2e5760009150506102f7565b60b8811080610d49575060c08110801590610d49575060f881105b15610d585760019150506102f7565b60c0811015610d6c5760b5190190506102f7565b60f5190190506102f7565b80610d8157610dbd565b5b60208110610da1578251825260209283019290910190601f1901610d82565b8251825160208390036101000a60001901801990921691161782525b505050565b60408051602081019091526000815281516060919015610f3057600080610dea6000866112fe565b60f81c90506001811480610e0157508060ff166003145b15610e9057600185516002020367ffffffffffffffff81118015610e2457600080fd5b506040519080825280601f01601f191660200182016040528015610e4f576020820181803683370190505b5092506000610e5f6001876112fe565b90508084600081518110610e6f57fe5b60200101906001600160f81b031916908160001a9053506001925050610ee1565b600285516002020367ffffffffffffffff81118015610eae57600080fd5b506040519080825280601f01601f191660200182016040528015610ed9576020820181803683370190505b509250600091505b60ff82165b8351811015610f2c57610f018360ff168203600201876112fe565b848281518110610f0d57fe5b60200101906001600160f81b031916908160001a905350600101610ee6565b5050505b92915050565b606080826000015167ffffffffffffffff81118015610f5457600080fd5b506040519080825280601f01601f191660200182016040528015610f7f576020820181803683370190505b5090506000816020019050610d0d8460200151828660000151610d77565b6040805160248082018490528251808303909101815260449091019091526020810180516001600160e01b03166327b7cf8560e01b179052610fde9061135b565b50565b600080610ff18360200151610c7b565b835190915081146110335760405162461bcd60e51b815260040180806020018281038252602e815260200180611514602e913960400191505060405180910390fd5b82516021146110735760405162461bcd60e51b815260040180806020018281038252602581526020018061142e6025913960400191505060405180910390fd5b5050602001516001015190565b600080606061108e86610dc2565b90506060815167ffffffffffffffff811180156110aa57600080fd5b506040519080825280601f01601f1916602001820160405280156110d5576020820181803683370190505b509050845b8251860181101561112f5760008782815181106110f357fe5b602001015160f81c60f81b905080838884038151811061110f57fe5b60200101906001600160f81b031916908160001a905350506001016110da565b5080805190602001208280519060200120141561114f5781519250611154565b600092505b509095945050505050565b60006111a183836040518060400160405280601e81526020017f536166654d6174683a207375627472616374696f6e206f766572666c6f77000081525061137c565b9392505050565b600060208251816111b557fe5b06156111ff576040805162461bcd60e51b8152602060048201526014602482015273092dcecc2d8d2c840e0e4dedecc40d8cadccee8d60631b604482015290519081900360640190fd5b6000602083518161120c57fe5b0490508060020a851061125e576040805162461bcd60e51b81526020600482015260156024820152744c65616620696e64657820697320746f6f2062696760581b604482015290519081900360640190fd5b60008660205b855181116112f057858101519250600288066112b057818360405160200180838152602001828152602001925050506040516020818303038152906040528051906020012091506112e2565b828260405160200180838152602001828152602001925050506040516020818303038152906040528051906020012091505b600288049750602001611264565b509094149695505050505050565b6000600283061561132f57601082600285048151811061131a57fe5b016020015160f81c8161132957fe5b06611351565b601082600285048151811061134057fe5b016020015160f81c8161134f57fe5b045b60f81b9392505050565b80516a636f6e736f6c652e6c6f67602083016000808483855afa5050505050565b6000818484111561140b5760405162461bcd60e51b81526004018080602001828103825283818151815260200191508051906020019080838360005b838110156113d05781810151838201526020016113b8565b50505050905090810190601f1680156113fd5780820380516001836020036101000a031916815260200191505b509250505060405180910390fd5b505050900390565b60405180604001604052806000815260200160008152509056fe524c505265616465723a20494e56414c49445f55494e545f5354524943545f4c454e475448526f6f74436861696e4d616e616765723a20494e56414c49445f4252414e43485f4d41534b524c505265616465723a2042595445535f4445434f4445445f4c454e4754485f4d49534d41544348524c505265616465723a204e554d5f4954454d535f4445434f4445445f4c454e4754485f4d49534d415443484c656166206e6f6465206861736820646f65736e2774206d617463682028313729524c505265616465723a204c4953545f4445434f4445445f4c454e4754485f4d49534d41544348524c505265616465723a2055494e545f5354524943545f4445434f4445445f4c454e4754485f4d49534d41544348524c505265616465723a2055494e545f4445434f4445445f4c454e4754485f4d49534d41544348a2646970667358221220c8b2cf8dfc095b0146432e13ccb5eaa6f7317dd6f5f603644aaa88359aae074864736f6c63430006060033",
  "linkReferences": {},
  "deployedLinkReferences": {}
}