{
  "_format": "hh-sol-artifact-1",
  "contractName": "TestMerklePatriciaProof",
  "sourceName": "contracts/test/TestMerklePatriciaProof.sol",
  "abi": [
    {
      "inputs": [
        {
          "internalType": "bytes",
          "name": "value",
          "type": "bytes"
        },
        {
          "internalType": "bytes",
          "name": "encodedPath",
          "type": "bytes"
        },
        {
          "internalType": "bytes",
          "name": "rlpParentNodes",
          "type": "bytes"
        },
        {
          "internalType": "bytes32",
          "name": "root",
          "type": "bytes32"
        }
      ],
      "name": "verify",
      "outputs": [
        {
          "internalType": "bool",
          "name": "",
          "type": "bool"
        }
      ],
      "stateMutability": "view",
      "type": "function"
    }
  ],
  "bytecode": "0x608060405234801561001057600080fd5b50611035806100206000396000f3fe608060405234801561001057600080fd5b506004361061002b5760003560e01c806379d1d4fa14610030575b600080fd5b6101e66004803603608081101561004657600080fd5b81019060208101813564010000000081111561006157600080fd5b82018360208201111561007357600080fd5b8035906020019184600183028401116401000000008311171561009557600080fd5b91908080601f01602080910402602001604051908101604052809392919081815260200183838082843760009201919091525092959493602081019350359150506401000000008111156100e857600080fd5b8201836020820111156100fa57600080fd5b8035906020019184600183028401116401000000008311171561011c57600080fd5b91908080601f016020809104026020016040519081016040528093929190818152602001838380828437600092019190915250929594936020810193503591505064010000000081111561016f57600080fd5b82018360208201111561018157600080fd5b803590602001918460018302840111640100000000831117156101a357600080fd5b91908080601f01602080910402602001604051908101604052809392919081815260200183838082843760009201919091525092955050913592506101fa915050565b604080519115158252519081900360200190f35b600061020885858585610213565b90505b949350505050565b600061021d610ef6565b61022684610608565b9050606061023382610684565b9050606080856000826102458b610806565b9050805160001415610294576040805162461bcd60e51b8152602060048201526013602482015272092dcecc2d8d2c840d8cadccee8d040e0c2e8d606b1b604482015290519081900360640190fd5b60005b86518110156105f85781518311156102e4576040805162461bcd60e51b815260206004820152600b60248201526a2130b2103830ba34283a3960a91b604482015290519081900360640190fd5b6103008782815181106102f357fe5b602002602001015161097a565b95508580519060200120841461036f57610319846109e8565b61032986805190602001206109e8565b6040805162461bcd60e51b8152602060048201526016602482015275096caf240c8decae6dc4ee840dac2e8c6d040d0c2e6d60531b604482015290519081900360640190fd5b61038b87828151811061037e57fe5b6020026020010151610684565b94508451601114156104a357815183141561041a578c805190602001206103c5866010815181106103b857fe5b6020026020010151610a2c565b8051906020012014156103e35760019850505050505050505061020b565b60405162461bcd60e51b8152600401808060200182810382526021815260200180610f8a6021913960400191505060405180910390fd5b600082848151811061042857fe5b016020015160f81c90506010811115610475576040805162461bcd60e51b815260206004820152600a602482015269426164206e6962626c6560b01b604482015290519081900360640190fd5b610494868260ff168151811061048757fe5b6020026020010151610b00565b945050600192909201916105f0565b8451600214156105b75760006104c96104c2876000815181106103b857fe5b8486610b9f565b90508251818501141561055a578d805190602001206104ee876001815181106103b857fe5b80519060200120141561050d576001995050505050505050505061020b565b6040805162461bcd60e51b815260206004820181905260248201527f4c656166206e6f6465206861736820646f65736e2774206d6174636820283229604482015290519081900360640190fd5b80610599576040805162461bcd60e51b815260206004820152600a60248201526929b7b6b2ba3434b7339960b11b604482015290519081900360640190fd5b80840193506105ae8660018151811061048757fe5b94506105f09050565b6040805162461bcd60e51b8152602060048201526009602482015268536f6d657468696e6760b81b604482015290519081900360640190fd5b600101610297565b5050505050505050949350505050565b610610610ef6565b6000825111610666576040805162461bcd60e51b815260206004820152601f60248201527f524c505265616465723a20494e56414c49445f42595445535f4c454e47544800604482015290519081900360640190fd5b5060408051808201909152815181526020828101908201525b919050565b606061068f82610c7e565b6106e0576040805162461bcd60e51b815260206004820152601860248201527f524c505265616465723a204954454d5f4e4f545f4c4953540000000000000000604482015290519081900360640190fd5b60006106eb83610caa565b905060608167ffffffffffffffff8111801561070657600080fd5b5060405190808252806020026020018201604052801561074057816020015b61072d610ef6565b8152602001906001900390816107255790505b50905060006107528560200151610d36565b855190915081146107945760405162461bcd60e51b8152600401808060200182810382526027815260200180610fab6027913960400191505060405180910390fd5b60006107a38660200151610dca565b60208701510190506000805b858110156107fa576107c083610d36565b91506040518060400160405280838152602001848152508582815181106107e357fe5b6020908102919091010152918101916001016107af565b50929695505050505050565b604080516020810190915260008152815160609190156109745760008061082e600086610e2d565b60f81c9050600181148061084557508060ff166003145b156108d457600185516002020367ffffffffffffffff8111801561086857600080fd5b506040519080825280601f01601f191660200182016040528015610893576020820181803683370190505b50925060006108a3600187610e2d565b905080846000815181106108b357fe5b60200101906001600160f81b031916908160001a9053506001925050610925565b600285516002020367ffffffffffffffff811180156108f257600080fd5b506040519080825280601f01601f19166020018201604052801561091d576020820181803683370190505b509250600091505b60ff82165b8351811015610970576109458360ff16820360020187610e2d565b84828151811061095157fe5b60200101906001600160f81b031916908160001a90535060010161092a565b5050505b92915050565b606080826000015167ffffffffffffffff8111801561099857600080fd5b506040519080825280601f01601f1916602001820160405280156109c3576020820181803683370190505b50905060008160200190506109e18460200151828660000151610e8a565b5092915050565b6040805160248082018490528251808303909101815260449091019091526020810180516001600160e01b03166327b7cf8560e01b179052610a2990610ed5565b50565b60606000610a3d8360200151610d36565b83519091508114610a7f5760405162461bcd60e51b8152600401808060200182810382526028815260200180610f366028913960400191505060405180910390fd5b6000610a8e8460200151610dca565b845190915081900360608167ffffffffffffffff81118015610aaf57600080fd5b506040519080825280601f01601f191660200182016040528015610ada576020820181803683370190505b5090506000816020019050610af6848860200151018285610e8a565b5095945050505050565b600080610b108360200151610d36565b83519091508114610b525760405162461bcd60e51b815260040180806020018281038252602e815260200180610fd2602e913960400191505060405180910390fd5b8251602114610b925760405162461bcd60e51b8152600401808060200182810382526025815260200180610f116025913960400191505060405180910390fd5b5050602001516001015190565b6000806060610bad86610806565b90506060815167ffffffffffffffff81118015610bc957600080fd5b506040519080825280601f01601f191660200182016040528015610bf4576020820181803683370190505b509050845b82518601811015610c4e576000878281518110610c1257fe5b602001015160f81c60f81b9050808388840381518110610c2e57fe5b60200101906001600160f81b031916908160001a90535050600101610bf9565b50808051906020012082805190602001201415610c6e5781519250610c73565b600092505b509095945050505050565b6020810151805160009190821a9060c0821015610ca05760009250505061067f565b5060019392505050565b600080600090506000610cc08460200151610dca565b602085015185519181019250015b80821015610d2d57610cdf82610d36565b8201915080821115610d225760405162461bcd60e51b815260040180806020018281038252602c815260200180610f5e602c913960400191505060405180910390fd5b600190920191610cce565b50909392505050565b80516000908190811a6080811015610d5157600191506109e1565b60b8811015610d6657607e19810191506109e1565b60c0811015610d935760b78103600185019450806020036101000a855104600182018101935050506109e1565b60f8811015610da85760be19810191506109e1565b60019390930151602084900360f7016101000a900490920160f5190192915050565b8051600090811a6080811015610de457600091505061067f565b60b8811080610dff575060c08110801590610dff575060f881105b15610e0e57600191505061067f565b60c0811015610e225760b51901905061067f565b60f51901905061067f565b60006002830615610e5e576010826002850481518110610e4957fe5b016020015160f81c81610e5857fe5b06610e80565b6010826002850481518110610e6f57fe5b016020015160f81c81610e7e57fe5b045b60f81b9392505050565b80610e9457610ed0565b5b60208110610eb4578251825260209283019290910190601f1901610e95565b8251825160208390036101000a60001901801990921691161782525b505050565b80516a636f6e736f6c652e6c6f67602083016000808483855afa5050505050565b60405180604001604052806000815260200160008152509056fe524c505265616465723a20494e56414c49445f55494e545f5354524943545f4c454e475448524c505265616465723a2042595445535f4445434f4445445f4c454e4754485f4d49534d41544348524c505265616465723a204e554d5f4954454d535f4445434f4445445f4c454e4754485f4d49534d415443484c656166206e6f6465206861736820646f65736e2774206d617463682028313729524c505265616465723a204c4953545f4445434f4445445f4c454e4754485f4d49534d41544348524c505265616465723a2055494e545f5354524943545f4445434f4445445f4c454e4754485f4d49534d41544348a2646970667358221220b696c3ef8614c380e6819f31b8b0c91931f8e8fda023127ca893807909da866264736f6c63430006060033",
  "linkReferences": {},
  "deployedLinkReferences": {}
}