{
  "_format": "hh-sol-artifact-1",
  "contractName": "TestMerkle",
  "sourceName": "contracts/test/TestMerkle.sol",
  "abi": [
    {
      "inputs": [
        {
          "internalType": "bytes32",
          "name": "leaf",
          "type": "bytes32"
        },
        {
          "internalType": "uint256",
          "name": "index",
          "type": "uint256"
        },
        {
          "internalType": "bytes32",
          "name": "rootHash",
          "type": "bytes32"
        },
        {
          "internalType": "bytes",
          "name": "proof",
          "type": "bytes"
        }
      ],
      "name": "checkMembership",
      "outputs": [
        {
          "internalType": "bool",
          "name": "",
          "type": "bool"
        }
      ],
      "stateMutability": "pure",
      "type": "function"
    }
  ],
  "bytecode": "0x608060405234801561001057600080fd5b506102a0806100206000396000f3fe608060405234801561001057600080fd5b506004361061002b5760003560e01c80636c8f455c14610030575b600080fd5b6100e96004803603608081101561004657600080fd5b8135916020810135916040820135919081019060808101606082013564010000000081111561007457600080fd5b82018360208201111561008657600080fd5b803590602001918460018302840111640100000000831117156100a857600080fd5b91908080601f0160208091040260200160405190810160405280939291908181526020018383808284376000920191909152509295506100fd945050505050565b604080519115158252519081900360200190f35b600061010b85858585610114565b95945050505050565b6000602082518161012157fe5b061561016b576040805162461bcd60e51b8152602060048201526014602482015273092dcecc2d8d2c840e0e4dedecc40d8cadccee8d60631b604482015290519081900360640190fd5b6000602083518161017857fe5b0490508060020a85106101ca576040805162461bcd60e51b81526020600482015260156024820152744c65616620696e64657820697320746f6f2062696760581b604482015290519081900360640190fd5b60008660205b8551811161025c578581015192506002880661021c578183604051602001808381526020018281526020019250505060405160208183030381529060405280519060200120915061024e565b828260405160200180838152602001828152602001925050506040516020818303038152906040528051906020012091505b6002880497506020016101d0565b50909414969550505050505056fea26469706673582212202f2fa2257df0e147134e93a25b02f72325a570258ba1c722dbc73c1eaf96c23e64736f6c63430006060033",
  "linkReferences": {},
  "deployedLinkReferences": {}
}